{
  "contractName": "firstContract",
  "abi": [
    {
      "inputs": [],
      "name": "num",
      "outputs": [
        {
          "internalType": "int256",
          "name": "",
          "type": "int256"
        }
      ],
      "stateMutability": "view",
      "type": "function"
    },
    {
      "inputs": [],
      "name": "number",
      "outputs": [
        {
          "internalType": "uint256",
          "name": "",
          "type": "uint256"
        }
      ],
      "stateMutability": "view",
      "type": "function"
    }
  ],
  "bytecode": "0x6080604052610d485f557fffffffffffffffffffffffffffffffffffffffffffffffffffffffffffffff7b600155348015610038575f80fd5b50610103806100465f395ff3fe6080604052348015600e575f80fd5b50600436106030575f3560e01c80634e70b1dc1460345780638381f58a14604e575b5f80fd5b603a6068565b604051604591906089565b60405180910390f35b6054606e565b604051605f919060b6565b60405180910390f35b60015481565b5f5481565b5f819050919050565b6083816073565b82525050565b5f602082019050609a5f830184607c565b92915050565b5f819050919050565b60b08160a0565b82525050565b5f60208201905060c75f83018460a9565b9291505056fea26469706673582212203c3eae1cb52b25f62d019ea8da3c8f6e2a02ed888330ec3c8350683dc7f19c0464736f6c63430008150033",
  "immutableReferences": {},
  "source": "// SPDX-License-Identifier: MIT\r\npragma solidity >=0.4.22 <0.9.0;\r\n\r\ncontract firstContract {\r\n    uint public number = 3400; // always positve\r\n    int public num = -133; // negative -- positive values in int\r\n}\r\n",
  "sourcePath": "C:\\Pratibha\\Blockchain\\solidity\\chain\\contracts\\first.sol",
  "compiler": {
    "name": "solc",
    "version": "0.8.21+commit.d9974bed.Emscripten.clang"
  },
  "schemaVersion": "3.4.16",
  "updatedAt": "2023-11-28T03:06:04.243Z",
  "devdoc": {
    "kind": "dev",
    "methods": {},
    "version": 1
  },
  "userdoc": {
    "kind": "user",
    "methods": {},
    "version": 1
  }
}